:020000040800F2
:10000000400700203D020008233F0008AD330008F0
:100010001F3F0008DF2C0008894C0008000000008A
:10002000000000000000000000000000E54700089C
:10003000212E000800000000CD460008D14800082D
:10004000570200085702000857020008570200082C
:10005000570200085702000857020008570200081C
:10006000570200085702000857020008570200080C
:1000700057020008570200085702000857020008FC
:1000800057020008570200085702000857020008EC
:1000900057020008570200085702000857020008DC
:1000A00057020008570200085702000857020008CC
:1000B0005702000889490008570200085702000843
:1000C00057020008570200085702000857020008AC
:1000D000570200085D4A0008794A000857020008E4
:1000E00057020008570200085702000800F002F803
:1000F00000F094F80AA090E8000C82448344AAF12E
:100100000107DA4501D100F089F8AFF2090EBAE82B
:100110000F0013F0010F18BFFB1A43F0010318473B
:100120001060000030600000103A24BF78C878C129
:10013000FAD8520724BF30C830C144BF04680C60ED
:10014000704700000023002400250026103A28BF35
:1001500078C1FBD8520728BF30C148BF0B60704739
:100160006E2900F08885702900F04382662905F029
:10017000D486652905F0D186672905F0CE866129E8
:1001800005F0CD8603681B0A28BF41F0800169296C
:1001900000F0B481642900F0B181752900F0AE81CE
:1001A0006F2901F08380782900F00F82E92901F09E
:1001B0001D80E42901F01A80F52901F01780EF294C
:1001C00001F08080F82900F00E820368DB0928BF67
:1001D00041F08001632900F09E87732900F0A38716
:1001E000E32901F0AB85F32901F0B08500207047C9
:1001F0001FB59DE8030000F09DFC01F06BFB0400BF
:100200000020002105F0E6FC401C60600020002179
:1002100005F0F6FCE0601FBD10B510BD01F080FEDA
:100220001146FFF7E5FF05F03FF802F0DDF803B4F3
:10023000FFF7F2FF03BC02F00BF90000094880470A
:1002400009480047FEE7FEE7FEE7FEE7FEE7FEE7B8
:10025000FEE7FEE7FEE7FEE704480549054A064BD0
:1002600070470000E9480008ED0000084001002048
:1002700040070020400300204003002070B50646E0
:1002800000F038FC056806F10B0020F00704B442CA
:100290009CBF002070BD2B466A68BAB11068A042AE
:1002A00010D304F1080188423CBF5068586007D35E
:1002B0005168101941601168091B01605860146091
:1002C000101D70BD13465268002AE7D1214628460A
:1002D00000F01CFC0028DED170BD70B50446051F7F
:1002E00000F008FC0068002C14BF446870BD002CAE
:1002F00018BFAC423CBF20466468F8D301680A18B6
:10030000AA4218BF456003D12A680546114401601E
:1003100028684119A1421CBF6C6070BD61686960AA
:1003200021680844286070BD70B50D460646041F5C
:1003300000F0E0FBD0F800C0C5B1E6B105F10B005C
:1003400020F00703AB423CBF002070BD20689842FC
:1003500038BFDCF8042013D3C11A08292FD3E018C2
:1003600040F8041B2360FFF7B8FF28E03046FFF792
:10037000B4FF002070BD2846BDE87040FFF77EBF87
:10038000002A18BFA2423CBF94465268F8D3011914
:10039000914216D111680844984212D3C11A082913
:1003A0003CBF2060506808D35168E0184160216864
:1003B00012681144C91A01602360CCF80400201DA2
:1003C00070BD181FFFF75AFF050007D021680A1FEC
:1003D000211D00F0C7FA201DFFF77FFF284670BDE2
:1003E00010B5044600F07EFB0068005DC00602D533
:1003F00004F1200010BD204610BD00007CB51D4654
:1004000016460C00009001D02044401E074B7B4450
:100410002A4669460190304600F053FE05461CB15D
:100420000020694600F060FE28467CBDE10C00001B
:100430000FB41CB5084B06AA7B446946009005988A
:1004400000F03FFE04460020694600F04DFE2046C5
:100450001CBC5DF814FB0000AD0C000070B5044638
:1004600085690068C10601D5302600E02026C00756
:1004700007D070BDD4E9012130469047206A401C66
:1004800020626D1EF6D570BD70B504468569007892
:10049000C00707D170BDD4E9012120209047206A10
:1004A000401C20626D1EF6D570BD70B50C46054629
:1004B000012A05D02878800600D5EA69002302E0E9
:1004C000012305E05B1C934202D2E05C0028F9D1D5
:1004D000A869E618C01AA861286A18442862284644
:1004E000FFF7BCFF04E0D5E9012114F8010B9047A8
:1004F000B442F8D32846FFF7C7FF70BD2DE9F0419D
:100500000646002410687529314616A510D000F063
:1005100047FB002802DA404213A507E031688A074A
:1005200001D512A502E0490704D511A5012401E077
:1005300000F03FFB00210A2206F1240709E0B0FB8E
:10054000F2FCB0FBF2F302FB1C003030785418468A
:10055000491C0028F3D123462A463046BDE8F04125
:1005600000F030BB000000002D0000002B00000058
:1005700020000000F0B40D460188090502D5214C89
:100580007C4402E01F4C7C440E34002100F1240620
:1005900008E002F00F071209E75D42EA03721B0947
:1005A0007754491C52EA0307F3D10278002312075B
:1005B00004D5702D06D009B1022311342246F0BCB7
:1005C00000F000BB01231034F8E770B504460D4677
:1005D0002146106800F0EDFA024629462046BDE8A3
:1005E00070400023C6E7D21D22F00703D3E90023A1
:1005F000C0E70368126843F0200303600823C36167
:100600000023B7E7A05A00002DE9F05F89460446B1
:100610004FF0000ADFF874B1FB44C0F820A0204678
:10062000E1688847002874D0252806D0D4E9012144
:100630009047206A401C2062F1E700265F46204672
:10064000E16888472028054607DB312D05D2781957
:1006500010F8200C08B10643F1E7B00701D526F0E9
:100660000406C4F81CA00027C4F818A02A2D09D03D
:10067000284604F070FC38B304EB8708303DC8F816
:10068000185019E059F8041B204604EB87029161C9
:10069000E1688847012F054618D1E069002820DA73
:1006A00026F020061DE0D8F8180000EB800005EBCE
:1006B00040003038C8F818002046E16888470546F1
:1006C00004F049FC0028EED1012F0AD02E2D08D1CC
:1006D0002046E16888477F1C0546022F46F0200629
:1006E000C4DBA069002803DA404246F00106A0619D
:1006F000F00701D026F010066C2D0BD0682D09D024
:100700004C2D39D06A2D35D0742D35D07A2D33D07B
:1007100016E038E0E1682F4620468847B842054693
:1007200009D16C2F26D04FF48060E1680643204643
:100730008847054604E06C2F1AD04FF480700643BA
:100740000DB3A5F14100192802D8203546F4006602
:100750004A462946204626604E46FFF701FD80B1F5
:1007600001280BD0F61D26F0070000F1080956E716
:100770004020E4E78020D8E70020D6E706F104090E
:100780004DE7284652E7206ABDE8F09F305A000046
:1007900070B5064600F0B2F90468054630460A22F4
:1007A000002101F05BF82C6070BD401ECAB210F849
:1007B000011F8A4202D00029F9D10020704710B5EC
:1007C000431E13F8014F002CFBD105E011F8014B3B
:1007D000002C03F8014B03D0521EF7D200211970F0
:1007E00010BD30B505460B462A4613F8014B12F8EA
:1007F000010B08B1A042F8D01CB1002802D06D1C3A
:10080000F1E7284630BD10B5431C02E010F8011B8B
:1008100071B18107FAD14FF0013202C88C1A8C43B2
:1008200014EAC211F9D0C01A0A0603D0C01E10BDC6
:10083000C01A10BD0A0401D0801E10BD0902FCD0F0
:10084000401E10BD40EA010370B59B072ED14FF04A
:100850000136042A2AD308C810C99D1B9D43121FC4
:1008600015EAC61517D0D8B2E1B2401A50EA0561B0
:1008700010D198B2A1B2401A50EA05410AD123F032
:100880007F4024F07F41401A50EA052102D1180E22
:10089000A0EB146070BDA342DBD018BA21BA884225
:1008A00001D9012070BD4FF0FF3070BD0AB90020A2
:1008B00070BD10F8013B11F8014B63B1A3420AD19E
:1008C000521E08D010F8013B11F8014B1BB1A34296
:1008D00001D1521EEDD1181B70BD032A40F23080A9
:1008E00010F0030C00F0158011F8013BBCF1020F71
:1008F000624498BF11F801CB00F8013B38BF11F8F2
:10090000013BA2F1040298BF00F801CB38BF00F808
:10091000013B11F0030300F02580083AC0F0088085
:1009200051F8043B083A51F804CBA0E80810F5E769
:10093000121D5CBF51F8043B40F8043BAFF300804C
:10094000D20724BF11F8013B11F801CB48BF11F8C1
:10095000012B24BF00F8013B00F801CB48BF00F891
:10096000012B704710B5203AC0F00B80B1E8185049
:10097000203AA0E81850B1E81850A0E81850BFF489
:10098000F5AF5FEA027C24BFB1E81850A0E8185028
:1009900044BF18C918C0BDE810405FEA827C24BF7C
:1009A00051F8043B40F8043B08BF7047D20728BF0A
:1009B00031F8023B48BF11F8012B28BF20F8023B59
:1009C00048BF00F8012B70474FF000020429C0F027
:1009D000128010F0030C00F01B80CCF1040CBCF171
:1009E000020F18BF00F8012BA8BF20F8022BA1EBC3
:1009F0000C0100F00DB85FEAC17C24BF00F8012BA8
:100A000000F8012B48BF00F8012B70474FF000029F
:100A100000B5134694469646203922BFA0E80C50F4
:100A2000A0E80C50B1F12001BFF4F7AF090728BFCF
:100A3000A0E80C5048BF0CC05DF804EB890028BF4B
:100A400040F8042B08BF704748BF20F8022B11F074
:100A5000804F18BF00F8012B704700004FF0013C99
:100A600050F8042B51F8043B9A4221D1A2EB0C031D
:100A7000934313EACC1317D150F8042B51F8043BDD
:100A80009A4215D1A2EB0C03934313EACC130BD17A
:100A900050F8042B51F8043B9A4209D1A2EB0C0305
:100AA000934313EACC13DBD04FF00000704700BF34
:100AB000D01A01BAB1FA81F101F0180122FA01F05D
:100AC000CB40C1F12001DBB2C0B2C01A2CFA01F355
:100AD000D11A914311EAC311E6D1704770477047AC
:100AE0007047000010B500F0F5FE001D10BD00BFFE
:100AF000E550000000487047E400002000487047BF
:100B0000DC000020704770477047704738B50446D6
:100B10000A4600206946AFF30080002808BF38BDB0
:100B200002460099204600F0D9FE012038BD012080
:100B300001F0EEB9F8B5AFF30080054600200C4691
:100B4000102000BF0646A819A0420DD932466946BA
:100B50000020AFF30080070008BF01F0D9F900982A
:100B6000A04218BF0546C419FFF7C4FF0560074639
:100B7000F01D20F007004619284600F00AF8B4429C
:100B800008BFF8BDA21B31463868BDE8F84000F048
:100B9000A5BE00210160C0E9011070471020704718
:100BA00009684A0501D540B27047C905FCD500B2B5
:100BB000704709684A0501D5C0B27047C905FCD520
:100BC00080B270472DE9F0470D469946924604469B
:100BD00000F124080168880604D5E06921F01001BD
:100BE000216000E00120A84201DD471B00E0002752
:100BF000A1697A1902EB0900081AA0612078C006E1
:100C000002D42046FFF72AFC002608E0D4E901219F
:100C10001AF806009047206A401C761C20624E4558
:100C2000F4DB2078C0060AD52046FFF717FC06E063
:100C3000D4E9012130209047206A401C2062381EF0
:100C4000A7F10107F4DC07E0D4E9012118F8050059
:100C50009047206A401C2062281EA5F10105F3DCA4
:100C60002046FFF711FC2078000602D50220BDE8DF
:100C7000F0870120FBE711680268006A530501D57F
:100C800008700AE0D30501D5088006E0130603D5F5
:100C9000C217C1E9000200E00860012070477047F8
:100CA0002DE9FF4F0C461E464FF0FF378BB0D2E9BF
:100CB0000001DDF860800A908A46C1F30A5505B943
:100CC0003D46002108464FF00000BAF1000F00F445
:100CD000400005DA00EB80004FF4400101EA5000CB
:100CE0004FEA9059B9F1010F00DDB9460A9850EA70
:100CF0004A000ED044F61050A5F2FF3545432F149C
:100D0000B8F1000F1ED07542291E1EDDC9F1000288
:100D10001CE0B8F1010F4FF0000001D0302103E0DA
:100D2000F24305E02154401CB042FBDB3046002278
:100D3000002121540B99C1F80880C1E900200FB0AF
:100D4000BDE8F08FBD1B6D1CDEE74A4600DA694244
:100D500006A801F04FF806AB93E8070003AB83E861
:100D6000070050460A9901F0ACFB8DE80700A0F59A
:100D700000501F3800900398002D09DD42F21F013A
:100D80004A46084403A90390684601F036FE08E08D
:100D9000A0F500504A461F3803A90390684601F0A9
:100DA00054FE8DE807000004000C03D04FF0FF3024
:100DB000410800E01046B8F1000F03D00022009275
:100DC00015461EE0751E05D400F0A2FD30326255B6
:100DD0006D1EF9D5B3460122084302D000227F1CC4
:100DE00004E02078302801D100227F1E002A0997D4
:100DF00086D01DE0112D07DA00F08AFD30326255F1
:100E00006D1C50EA0102F5D1084302D00098C8B128
:100E10000EE00021681E05E0235C625C63542254EE
:100E2000401E491C8142F7DBAB46A81B401E0990BF
:100E3000002004F80B000B98099AC0F80880C0E95C
:100E4000002B7CE711264FF0000859E72DE9F04F01
:100E500088460446D21D22F0070191B0D1E9000175
:100E6000CDE90A0103F0FDFF02460B98C00F01D047
:100E70002D2007E02068810701D52B2002E02021EA
:100E800001EAC000032A099001D0072A05DB0346C6
:100E90004146204600F008FF0BE12078800601D58E
:100EA000E06900E00620B8F1650F814606D0B8F190
:100EB000660F18D0B8F1670F70D131E00020B9F19A
:100EC000110F009001DB112301E009F101030AAACF
:100ED00001A90CA8FFF7E4FEDDE90C70002609F17A
:100EE0000105834647E001204B4600904FF0004744
:100EF0000AAA01A90CA8FFF7D3FEDDE90DB00C99F1
:100F00005D46002610B909F101000D18B9EB050086
:100F100003D4C0F1FF3609F10105A5EB09002BE070
:100F2000B9F1010F01DA4FF001090020B9F1110FF9
:100F30000090484601DD112300E003460AAA01A9FA
:100F40000CA8FFF7ADFEDDE90C704D460026834688
:100F5000207800070AD4AB4500DA5D4601A8012DD0
:100F600004DD411911F8011C302907D04F4502DA80
:100F700017F1040F04DA012082460FE06D1EEEE740
:100F8000002F02DCED1B3E4403E0781CA84200DD8C
:100F90007D1CB81B00F1010A4FF0004720780007C4
:100FA00003D4AA4501DB4FF0FF3A0021B7F1004F0F
:100FB0000DF143088DF8431024D002202B23002F7D
:100FC00001DA7F422D230A21021EA0F1010000DC7C
:100FD0005FB197FBF1FC97FBF1F201FB1C7C17461C
:100FE0000CF1300C08F801CDEEE7A8F10100037018
:100FF0002188090501D5452100E06521A0F10108FE
:1010000000F8011C09980FA9A1EB0807FF1D00B10A
:101010000120411901EBEA70A1693844081A401E09
:10102000A0612078C00602D42046FFF717FA09987D
:1010300028B1D4E901219047206A401C2062207821
:10104000C00622D52046FFF709FA1EE0002E04DB79
:10105000B34502DD01A8805D00E03020D4E9012124
:101060009047206A401C2062761CAAF101005FEACA
:10107000000A0AD100F02EFCC0680168405CD4E987
:1010800001219047206A401C2062281EA5F101051D
:10109000DCDC07E0D4E9012118F8010B9047206A55
:1010A000401C2062381EA7F10107F3DC2046FFF741
:1010B000EBF9032011B043E601694A1C026108788C
:1010C000704700B58FB0CDE9013100210591054988
:1010D0007944CDE9031011466846FFF795FA0FB041
:1010E00000BD0000E5FFFFFF0A6802F8010B0A607F
:1010F0007047D1E900239A4202D2531C0B60107052
:10110000704710B5436913B1AFF3008001E0FFF7FA
:10111000CCF9012010BD127800F124010A700022E0
:101120004A700122EDE711684FF0FF32E9E7000055
:101130002DE9FF5F15468A460446DFF8AC80F84487
:101140000027D8E900103E46CDE9001010E03AF83B
:1011500016106A4602A800F0BBFE411C07D0217899
:10116000890603D5E269391891420DD80744761CE7
:101170002078800602D5E069B84205DDAE42E6DBA4
:101180003AF816000028E2D1A069C01BA0612046F1
:10119000FFF764F9D8E90010CDE90010002017E04E
:1011A0003AF818106A4602A800F092FEB0F1FF3F2C
:1011B00081460BD000250DF1080B05E0D4E9012193
:1011C0001BF8050090476D1C4D45F7D308F1010051
:1011D000B0428046E4DB206A384420622046FFF7B4
:1011E00053F9BDE8FF9F00001E4F00002DE9F041BC
:1011F0008046D21D22F007020025D2E90002F5291F
:1012000015A614D0011E72F1000106DA0023D0EBFE
:10121000030063EB020211A608E0D8F800108B0768
:1012200001D50FA602E0490701D50EA601251146FA
:10123000002408F1240704E000F06AFB30323A553C
:10124000641C50EA0102F7D12B4632462146404643
:10125000BDE8F041FFF7B6BC000000002D00000023
:101260002B0000002000000030B4002100F1240415
:1012700008E002F00705D208303542EA4372DB0885
:101280006554491C52EA0305F3D10468002310A2F7
:10129000250708D504F020040C4304D0C4690123B9
:1012A0000CA2641EC46130BCFFF78CBC10B50446B0
:1012B00021461068FFF77DFC02462046BDE810403D
:1012C0000023D1E7D21D22F00701D1E90023CBE7AB
:1012D00000000000300000002DE9FF4F064689B0F5
:1012E0000878FF2806D0491C2D2805D000244FF08F
:1012F000000908E000200CE00124F8E709EB89036D
:10130000491C00EB43090878FF28F7D114B1C9F153
:1013100000008146107800252C46AA4629462D2833
:1013200001D02B2804D1521C2D2813D00020824636
:101330008B461078FF280FD04FF0000C0A21521C6A
:10134000A5FB017804FB018105FB0C11C5194BEBD2
:101350000104EEE70120EAE7002108464FF0000013
:10136000BAF1000F02D000EB80004008C0F38158B2
:10137000B8F1010F01DD4FF0FF380C9809EB0007C1
:1013800055EA040009D04FF0020917F5FA7F0BDA8D
:101390004FEACA70C6E900B012E04FEACA70C6E967
:1013A00000B00DB0BDE8F08FB7F5FA7F0DDDF04865
:1013B0007844D0E90010C6E9001040EACA707060B5
:1013C000FFF79CFBC0F80090EBE7391E02DAC8F18A
:1013D000000200E0424600DA794206A800F00AFD69
:1013E00006AB93E8070003AB83E8070044F23E0036
:1013F0005BEA04010090584604D144F21E012C46D9
:101400005D460091210C0904014306D10099240492
:1014100044EA15442D041039009104F07F41014342
:1014200006D10099240244EA15642D02083900917E
:1014300004F07041014306D10099240144EA157477
:101440002D01091F009104F04041014306D100998C
:10145000A40044EA9574AD00891E009104F0004197
:10146000084304D100986D196441401E0090424623
:101470006846002FCDE9014503A902DD01F0F9FA24
:1014800001E001F0CEFABAF1000F04460D4601D09A
:1014900084F0004440F2FF7724F00040284303D05A
:1014A000C4F30A50B84212D1FFF728FBC0F80090ED
:1014B000C4F30A50B8420AD1AE487844D0E90010CB
:1014C000C6E9001004F000410843706069E7C6E90E
:1014D000005466E72DE9FF4F1F464FF0000A4FF01A
:1014E000FF38454691B0D7E90146CDF83CA000F061
:1014F000F1F9C0680168405C1090B96912986D1CE0
:101500008847396A814688470028F6D1B9F1FF3FFC
:101510000AD0002E24F4D06411DDB9F12B0F08D0CD
:10152000B9F12D0F0BD102E0404615B03AE744F473
:101530008064B96912986D1C8847761E81466005E3
:1015400004A901D52D2000E02B20002E01F1010B74
:101550000DF130088DF810003FDDB9F1690F08D0AA
:10156000B9F1490F05D0B9F16E0F02D0B9F14E0FA4
:101570001CD13B4601A8009580E85002DDE912121B
:101580006FF0020004F031FDC11CCED10EE0B9694C
:1015900012986D1C884781461398761E44F4007497
:1015A00005600F98401C002E0F9016DDB9F1300F2A
:1015B000EDD0B9F1780F02D0B9F1580F0DD10F98D5
:1015C00001280AD13B46CDE90054DDE91212001F83
:1015D000029604F008FDC11CA7D1109989453ED19F
:1015E00044F0800406E01399681CAAF1010A44F44F
:1015F00000740860B9696D1C1298761E88473028FF
:101600008146F0D02BE01099894505D1200603D4FE
:10161000761E44F0800418E0484603F09CFC08B3B2
:10162000761E0DF123018B4544F4007408D2A9F114
:1016300030000BF8010B200607D5AAF1010003E0EA
:10164000200602D40AF101008246A00502D51399B2
:10165000681C0860B96912986D1C88478146002E85
:10166000D1DC53E0002E51DDB9F1650F02D0B9F1A4
:10167000450F4BD1A00549D5B9696D1C1298761E4E
:1016800024F440748847002E81460CDD2B2804D0BA
:10169000B9F12D0F07D144F48074B96912986D1C0B
:1016A0008847761E8146E00501D52D2100E02B21DB
:1016B00008F8011BCDF8008021E0761E0DF13901FC
:1016C000884544F400740CD2A9F1300010F0FF00FA
:1016D00088F8000002D10099884509D908F101086D
:1016E00006E0E00501D5244801E042F20F70824691
:1016F000B96912986D1C8847814613980560002EC1
:1017000004DD484603F027FC0028D6D1F969129879
:101710008847FF2053468BF8000088F8000000201F
:101720000A900B9004AA0CA90AA8FFF7D5FDA00502
:1017300002D46FF00100F8E614F0240F0AD0E0079D
:1017400014D13868DDE90A12031D3B600068C0E966
:1017500000120BE00AA9684603F0A6FBE00705D1DA
:101760003868009A011D3960006802602846DCE68E
:101770009C4D0000924C0000F1D8FFFF426842B13E
:10178000016811F8013B23B1521EC0E9001218464E
:1017900070470121C160881E704742685AB1C36812
:1017A000016843B983688B4205D0491E521CC0E9C9
:1017B0000012002070474FF0FF3070470FB4002335
:1017C00000B589B00CA900910B99CB60204B7B44EC
:1017D0000693204B7B44079304236FF00042CDE92E
:1017E00001321D4A7A446B4608920246002004F0FA
:1017F000F8FB09B05DF814FB70B506464FF0FF30FA
:1018000015460C46324686B00091CDE90101694685
:101810000020049004A8FFF7D1FF03460498211884
:1018200025B108B10A4600E022462A6000280DD002
:10183000002B02DD0098884208D03246081B69461A
:101840000094CDE9010404A8FFF7B8FF06B070BD0D
:10185000ABFFFFFFC3FFFFFFB30100002DE9F0471F
:1018600091460F4680460446002614F8015B2DB1D0
:10187000FFF738F90068405DC007F6D12B2D02D084
:101880002D2D18D0641E4A463946204600F062FAD3
:1018900027B13968A14201D1C7F800804FF0020496
:1018A00071050BD54042002803DDFFF727F90460DE
:1018B000A007BDE8F08746F48066E4E70028F8DA80
:1018C000FFF71CF904606FF00040F2E70048704732
:1018D000DC00002000487047FC0000200346406800
:1018E0008C46002818BF88423CBF03464068F8D3A6
:1018F00018681844884207D00CF1030020F0070054
:10190000001D411A521A0146081D0A60FEF7E5BC87
:1019100030B5B0F10A024FEA900E71F100034EEAC1
:10192000817EB0EB0E0061EB91014FEA101E4EEA92
:10193000017E10EB0E0041EB11114FEA102E4EEA22
:10194000016E10EB0E0041EB11214FEA104E4EEAF2
:10195000014E10EB0E0041EB1141401841F1000126
:101960004FEAD00040EA41704FEAD10110EB800508
:101970004FEA810444EA907444EB01046D1944EB8E
:101980000404521BA3414FF0000348BF0A3200D5A4
:1019900030BD401C41F1000130BD10B50446FFF7D9
:1019A000A1F80068005D00F0010010BD2DE9F04FC6
:1019B00004460D46D21D22F0070089B0D0E90092FE
:1019C00048461746394603F04CFA0246F80F01D054
:1019D0002D2307E02068810701D52B2302E0202179
:1019E00001EAC0038DF820300BB1012000E0002097
:1019F000032A824601D0072A04DB2946204600F04C
:101A000053F93DE12078800601D40D2500E0E56919
:101A1000C7F30A560D2D49DA00214FEA175B084635
:101A20004FF00000002F00F4400007DA00EB8000C8
:101A30004FF4400100EBD07001EA600081150129EC
:101A400001DD4FF0FF3100224FEA850CBCF1180F89
:101A500006D31346ACF118004FF08052C24003E0A9
:101A60004FF4801323FA0CF30CF10C0CBCF1200F93
:101A700004D3ACF1200C09FA0CF001E007FA0CF0E9
:101A800000294FF0004801DD18B90FE00ED14045A4
:101A90000CD319EB02095F4121B9404502D19F43A4
:101AA00029EA0209BBEB175F00D0761C20880005ED
:101AB00002D57B48784402E079487844193808AA6E
:101AC000302302F80A30037C0AF10101002E0AF1EA
:101AD000020A53546A4602DC4FF0300101E04FF035
:101AE00031014FF001088DF8001002D0A6F2FF3648
:101AF00003E059EA470100D06A4E002D02DC21784C
:101B0000090704D54FF002082E218DF80110C446B4
:101B100000210BE0C7F303433F01C35C491C6D1E6A
:101B200002F80830052908F1010801DA002DF1DC7E
:101B300000210CE000EB1973491C1B786D1E08296D
:101B400002F808304FEA091908F1010801DA002DFE
:101B5000F0DC2178890602D514E0A8F10108E045FF
:101B600005DD02EB080111F8011C3029F5D0B8F1B0
:101B7000000F07DD02EB080111F8011C2E2901D12D
:101B8000A8F10108002D05DD3E2102F808106D1EA8
:101B900008F10108407C002E02F8080008F1010855
:101BA00004DA2D20764202F8080002E02B2002F829
:101BB00008000A214FF47A70864208F101080BDB15
:101BC00096FBF0F3303302F8083096FBF0F308F19F
:101BD000010800FB136601E0642E0CDB642096FB19
:101BE000F0F3303302F8083096FBF0F308F1010807
:101BF00000FB136601E00A2E06DB96FBF1F03030A5
:101C000002F8080008F1010896FBF1F001FB1060F2
:101C1000303002F80800A16908F1010808EB05025C
:101C200002EB0A00081AA0612078C00602D4204600
:101C3000FEF714FC216A08AE01EB0A00206204E002
:101C4000D4E9012116F8010B9047BAF1010AF7D245
:101C50002078C00602D52046FEF700FC6E4609E05B
:101C600016F8010B3E280FD0D4E901219047206AD5
:101C7000401C2062B8F10108F2D22046FEF704FCB5
:101C800009B00320BDE8F08F206A2844206203E0F9
:101C9000D4E90121302090476D1EEBD3F8E7000016
:101CA000C345000002FCFFFF2DE9F0411F4604463A
:101CB00003260168072A01F4006004DB08B116A5B9
:101CC00005E016A503E008B115A500E015A521F073
:101CD00010002060A069C01EA0610FB1401EA0616D
:101CE0002046FEF7BBFB4FB1D4E9012138469047AF
:101CF000206A401C2062C01C206206E0206AFAE7CD
:101D0000D4E9012115F8010B9047761EF8D2204640
:101D1000FEF7BAFBBDE8F0814E414E006E616E00E9
:101D2000494E4600696E660010B5436913B1AFF3C2
:101D3000008001E0FFF7FCF9012010BD128800F1DE
:101D4000240182840022C2840122EDE711684FF051
:101D5000FF32E9E72DE9F05F824615468B46002702
:101D60000AF10104B9460078302801D09DB113E092
:101D700014F8010B0127782803D0582801D045B169
:101D80000AE00DB1102D07D1002714F8010B102522
:101D900002E0082500E00A250026B0460EE005FB1B
:101DA000080005FB06F101271FFA80F801EB104639
:101DB000B6F5803F00D3B94614F8010B294600F070
:101DC000DFF80028EBDABBF1000F05D00FB1641E7D
:101DD00000E05446CBF80040B9F1000F06D0FEF702
:101DE0008DFE02210160C81EBDE8F09F48EA064052
:101DF000FAE700002DE9F047814616468AB03348DD
:101E000078440DC88DE80D0030487844801C03AC40
:101E10000DC884E80D0041F69B300844372190FB43
:101E2000F1F290FBF1F5A5F1800501FB12041B3CDA
:101E300002D56442012000E00020DFF890A0804637
:101E40000027FA44AAF1BE0A0DE0E00709D03246A5
:101E5000684607EB47010AEB810100F0F6FD8DE8CB
:101E6000070064107F1C002CEFD1184F7F44AC3F5B
:101E700018E0E80714D007EB04100DF1180A90E8F9
:101E80000E008AE80E00C068F04201D1981908904F
:101E9000324606A903A800F0D8FD03AB83E807008B
:101EA0006D10641C002DE4D132466946B8F1000F74
:101EB00003A802D000F0A1FD01E000F0C6FDC9E9D1
:101EC0000001C9F808200AB0BDE8F0870843000007
:101ED00070B516460C460546FEF704FE036893F8F7
:101EE0000101012806D0FF2C0FD8185D68B1012030
:101EF0002C7070BDD3F807013246214603F2071358
:101F000003442846BDE8704018474FF0FF3070BDCD
:101F100010B500F075FABDE8104000F06BBA7047DC
:101F20007546FFF7D3FCAE4605006946534620F0E0
:101F30000700854618B020B5FEF78EF9BDE82040B1
:101F40004FF000064FF000074FF000084FF0000B75
:101F500021F00701AC46ACE8C009ACE8C009ACE828
:101F6000C009ACE8C0098D46704710B5FEF7C6FD44
:101F7000006810BD10B50446FEF7C0FD046010BD3A
:101F80003A2800D2303820F02002412A01D3A2F1B1
:101F90003700884201D34FF0FF3070472DE9FF4FE3
:101FA0001F464FF03C0987B04FF00042DDE91410A6
:101FB00001F10108DDF858A002EA4050039000202A
:101FC00004908346054604460590B969461E089864
:101FD0008847AAF1010A0290BAF1000F37DD029892
:101FE0002E2815D01021FFF7CBFF00282ADB4FF059
:101FF000010B0499014316D0B9F1000F0BDB4A46DF
:10200000C11700F02BFA05430C43A9F1040905E0C0
:102010000120059007E008B145F00105012004907A
:10202000059800B9361DB969089808F10108884774
:10203000BBF1000FAAF1010A0290CDD00999C1F8B5
:102040000080C9E70298702808D0502806D0F969A6
:1020500008988847BBF1000F14D04FE00020029091
:102060000120BBF1000F049009D0B969089808F16C
:1020700001088847AAF10109B9F1000F07DCF969E5
:10208000089888476FF001000BB0BDE8F08F2B284F
:1020900004D02D280CD14FF0FF300490B969089876
:1020A00008F101088847A9F10109B9F1000FE6DD3F
:1020B000411CE4D00A21FFF763FF0028DFDB02990F
:1020C00008F1010801EB810100EB41000290B969C0
:1020D000089888470A21FFF753FF099AA9F10109D7
:1020E000B9F1000FC2F8008001DD0028E7DAF969D4
:1020F000089888470499029800FB016655EA040095
:1021000004D004F04041090002D006E0039898E0B2
:10211000A40044EA9574AD00B61E04F00041080026
:1021200002D16D196441761E159810F0240F03D06A
:102130004FF00B095C4803E04FF028096FF07D0079
:102140008246564507DAAAEB06018944B9F1410FE8
:1021500001DD4FF0410901200021A9F1010200F049
:102160007DF9024628400B462140084301D0012159
:1021700000E00021501E029143F1FF312840214030
:10218000084301D0012000E000200299834651EA73
:102190000B014FD0002108464FF00000039900F4D6
:1021A000400039B100EB80004FF4400100EBD070EB
:1021B00001EA60008015012802DD4FF0FF3000E0E9
:1021C00013D0401C36D0029860B3BBF1000F0CD185
:1021D0004A460120002100F041F9284021400843EF
:1021E00001D0012000E00020E0B101204A4600219A
:1021F00000F034F9034640190A4661412D1A8C411A
:1022000011D3B9F1400F09DD159810F0240F02D059
:10221000AAF1340603E0AAF1170600E0761C0025B7
:102220004FF0004406E05B1E42F1FF3220EA030556
:1022300021EA0204CAF10100B04206DA1B49039800
:1022400008430190002000900EE0039AC4F3D321CC
:10225000E80A0A43164940EA44500A433146CDE9A8
:102260000002684602F06CFE159810F0240F0BD0A7
:102270001598C00715D13868DDE90012031D3B60D1
:102280000068C0E900120CE002A8694602F00CFEEA
:102290001598C00705D13868029A011D3960006899
:1022A00002604046F0E6000002FCFFFF0000F07F05
:1022B0000000F03F2DE9FF4F92461D4685B04FF0DC
:1022C0000041DDE9124BDDE914727F1E01EA4B503B
:1022D000414940F0FF4940EA0108002122F0200076
:1022E0004928049102D04E2828D04CE03BA001267A
:1022F00007C88DE80700A9690698641C88477F1EF7
:10230000014606D41DF8060018B121F020018142D3
:102310000BD0E96906988847032E34D0082E32D0B6
:102320006FF0010009B0BDE8F08F761C032E01D0DC
:10233000082EE0D1601CCAF80000DCE7A969069805
:10234000641C88477F1E2AD420F02000412826D113
:10235000A9690698641C88477F1E20D420F02000BD
:102360004E281CD1A9690698641C88477F1E48F432
:10237000002849F48009CAF8004001D4282806D072
:10238000E969069888475FEACB7012D022E0A96914
:102390000698641C88477F1E01D4002803DAE96987
:1023A00006988847BCE72928F1D1641CCAF8004088
:1023B000E9E71BF0240F07D028680499031D2B6060
:1023C0000068C0E9001805E02868021D2A6000685E
:1023D000C0F800902046A5E70000F07F494E46492E
:1023E0004E495459000000000446AFF300802046D7
:1023F000FDF71DFF002801D000F02AB8704700004B
:1024000010B5012805D0002103A000F03AF8012002
:1024100010BD09A1F8E7000053494752544D454DFE
:102420003A204F7574206F662068656170206D6575
:102430006D6F7279000000003A2048656170206D70
:10244000656D6F727920636F727275707465640068
:1024500001491820ABBEFEE726000200B2F12003BE
:102460000AD5C2F1200301FA02F120FA03F300FABF
:1024700002F041EA0301704700FA03F14FF0000057
:10248000704770B505460C460A2000E06D1C00F050
:1024900011F835B128780028F8D102E0641C00F06A
:1024A00009F814B120780028F8D1BDE870400A205E
:1024B000AFF3008008B569468DF800000320ABBE7D
:1024C00008BD5FEA400C08BF91F0000F4FEA8C2373
:1024D0004FEAC12243EA51514FEA1C5018BF00F5A0
:1024E000F0404FEA300018BF41F000415FEA6C5CF9
:1024F00000F02980BCF1FF3F08BF40F080407047EA
:10250000130C06BF12044FF0100C4FF0000C130E0A
:1025100004BF12020CF1080C130F04BF12010CF1DE
:10252000040C930F04BF92000CF1020CD30F04BFF4
:1025300052000CF1010C11464FF00002A0F11F00F7
:10254000A0EB0C00704711F0004F08BF704731F04E
:1025500000413FF4D5AF0B0C06BF09044FF0100C3F
:102560004FF0000C0B0E04BF09020CF1080C0B0F0E
:1025700004BF09010CF1040C8B0F04BF89000CF19E
:10258000020CCB0F04BF49000CF1010CCCF120036D
:10259000A0EB0C0022FA03F302FA0CF241EA030169
:1025A00000F10100704720F07F4C80EA030023F027
:1025B0007F47ACEB070303F57C5300F0004003F1C9
:1025C000FF032DE980494FEA154B09B44FEA144344
:1025D00025EA0B4E24EA03480FF2042606EB1327E4
:1025E00049083E785FEA320203FB0667C7F5000739
:1025F00007FB06F64FEA54374FEAD64606F10206C5
:1026000007FB066CCCF1005C4FEA1C472CEA074C38
:1026100007FB06F40CFB06F504EB15464FEA96168D
:1026200034BF00204FF000404FEAD13706FB07FCD3
:102630004FEA1C4C0CFB0BF7D21B03FB0CF761EBB6
:1026400007010CFB0EF7B0EB074072EB17420CFBD7
:1026500008F734BFA2EB0742B2EB074261EB174128
:102660004FEA0C444FEA910706FB07FC4FEA1C4C6B
:102670000CFB0BF7B0EBC74072EB573203FB0CF7C8
:1026800034BFA2EBC742B2EBC74261EB57310CFB40
:102690000EF7B0EBC70072EB57720CFB08F734BFB4
:1026A000A2EBC702B2EBC70261EB5771039F4FEA7F
:1026B000816141EA921104EBCC044FEAD1374FEA31
:1026C000826206FB07FC42EA90124FEA80604FEA02
:1026D0001C4C0CFB0BF7D21B03FB0CF761EB070147
:1026E0000CFB0EF7B0EB074072EB17420CFB08F740
:1026F00034BFA2EB0742B2EB074261EB17414FEA4E
:102700008C554FEA910704EB9C2406FB07FC4FEA2B
:102710001C4C0CFB0BF7B0EBC74072EB573203FBC2
:102720000CF734BFA2EBC742B2EBC74261EB5731A3
:102730000CFB0EF7B0EBC70072EB57720CFB08F7FF
:1027400034BFA2EBC702B2EBC70261EB577115EBC6
:102750004C254FEA816141EA92114FEA82624FEAC9
:10276000D13742EA901206FB07FC44F100044FEA1D
:1027700080604FEA1C4C0CFB0BF7D21B03FB0CF7E1
:1027800061EB07010CFB0EF7B0EB074072EB174251
:102790000CFB08F734BFA2EB0742B2EB074261EB38
:1027A000174115EB1C154FEA813141EA92414FEA7E
:1027B000823242EA90424FEA80304FEA0C7644F18E
:1027C000000448EA03434EEA0B484FF0000EB2EB18
:1027D000080C71EB030724BF624639464EEB0E0E20
:1027E0004FF0000B0018524149414BEB0B0BB2EB81
:1027F000080C71EB03077BF1000B24BF62463946DE
:102800004EEB0E0E4FF0000B0018524149414BEBBE
:102810000B0BB2EB080C71EB03077BF1000B24BF31
:10282000624639464EEB0E0E51EA020718BF46F0DB
:10283000010616EB0E7655F1000254F1000103D5A6
:10284000BDE88901BDE80088BDE88901BDE8004810
:10285000B619524141EB0101A3F101037047808099
:102860007F7E7D7C7B7A79787776767574737271EA
:1028700071706F6E6E6D6C6C6B6A6A6968686766A2
:1028800066656464636362616160605F5F5E5E5D34
:102890005D5C5C5B5B5A5A595958585757565655A8
:1028A00055555454535352525251515050504F4F0A
:1028B0004F4E4E4D4D4D4C4C4C4B4B4B4A4A4A495A
:1028C000494948484847474747464646454545449D
:1028D0004444444343434342424242414141000055
:1028E00046EA0646A3F570534FEA164646EA4256B4
:1028F0004FEAD22242EA415210B54FEAD121A3F168
:10290000010300F017F820F0004000F1010C00F086
:10291000004701EB00501146BCF5006F40EA07008C
:1029200000D210BD02484FF0000140EA070010BD80
:102930000000F07F002B26D4770021D01CB54FEA91
:10294000370703B44FF010004FF010014FF00000B4
:102950000FBCBDE810400BF1010BBBF1010F08BF2C
:102960005FEA170722BF12F1010211F101014FF0D6
:10297000004143F1000300F0004043EA00007047CB
:10298000F9D35708DAE746EA064613F1400F4FEA53
:1029900016461FDD13F1200FDFBF16430A46002144
:1029A00020335B42C8D0C3F1200746EA064602FA4C
:1029B00007F74FEA164646EA0706C3F1200722FA50
:1029C00003F201FA07F721FA03F14FF0000342EA9C
:1029D0000702B1E746EA020646EA06464FEA16460D
:1029E00046EA0106BCBF46EA0646360C4FF0000335
:1029F0004FF000024FF000019EE72DE9C0489346DA
:102A000030B491E8380007C831EA400C48BF34EAD6
:102A1000430C03D5FFF7C7FDFFF78CFFF0BCBDE803
:102A200000882DE9C048934630B491E8380007C8C3
:102A300031EA400C48BF34EA430C03D5FFF7B3FD3D
:102A4000FFF74EFFF0BCBDE800882DE9C048934673
:102A500030B491E8380007C810F0804F08BF13F079
:102A6000804F03D100F019F8FFF764FFF0BCBDE818
:102A700000882DE9C048934630B491E8380007C873
:102A800010F0804F08BF13F0804F03D100F005F81D
:102A9000FFF726FFF0BCBDE8008820F07F4780EA02
:102AA000030023F07F4C07EB0C03A3F57C5300F0ED
:102AB0000040A3F1FE0392F0000F00F0B38095F008
:102AC000000F00F077802DE901494FEA11404FEAED
:102AD000144621EA004800FB06FC24EA064708FBEE
:102AE00006F607FB08F800FB07F718EB06484CEB67
:102AF000164C4FEA124B18EB07484FEA15464CEBC1
:102B0000174022EA0B4E0BFB06FC25EA06470EFB9C
:102B100006F607FB0EFE0BFB07F71EEB064E4CEB13
:102B2000164C4FF000061EEB074E4CEB174B18EB04
:102B30000B0840F1000018EB0E0B58EB000840F1B9
:102B400000008F1A4FF000013CBFC943661B14BF41
:102B5000B5EB040C00213CBFC943F61B4FEA1744F8
:102B60004EEA8E0E27EA04454FEA1C4704FB076233
:102B70002CEA074C05FB07F70CFB05F604FB0CFCE5
:102B800016EB074642EB174216EB0C4642EB1C4293
:102B90001BEB060658EB0202414146EA9E0601D5B0
:102BA000BDE80189B619524141EB0101A3F10103CE
:102BB000BDE801894FEA14454FEA114724EA05466A
:102BC00021EA074C05FB07F406FB07F70CFB06F1AF
:102BD00005FB0CFC11EB074144EB17444FEA12478D
:102BE00011EB0C4144EB1C4422EA074C05FB07F2B5
:102BF00006FB07F70CFB06F605FB0CFC16EB07467D
:102C000042EB174216EB0C4642EB1C456A1854F196
:102C1000000148BF7047B619524141EB0101A3F1D1
:102C20000103704795F0000F37D04FEA11424FEA89
:102C3000144721EA024624EA074C02FB07F106FB8F
:102C400007F70CFB06F402FB0CFC14EB074441EB0A
:102C500017414FEA154714EB0C4441EB1C4125EAA0
:102C6000074C02FB07F506FB07F70CFB06F602FB19
:102C70000CFC16EB074645EB174516EB0C4645EBEF
:102C80001C42121951F1000148BF7047B619524158
:102C900041EB0101A3F1010370474FEA14454FEAEC
:102CA000114724EA054621EA074C05FB07F106FB1C
:102CB00007F70CFB06F24FF0000605FB0CFC12EBCD
:102CC000074241EB174112EB0C4251EB1C4148BF4C
:102CD0007047921841EB0101A3F10103704700BF57
:102CE000FEE7000010B50024282000F0DBF84FF4C8
:102CF0000041114800F048FB98B9502000F0D2F88C
:102D00004FF400410C4800F03FFB012809D150204E
:102D100000F0C8F84FF40041074800F035FB00B957
:102D2000012400BF4FF40041034800F02DFB0028B0
:102D3000F8D0204610BD00000008014010B5002466
:102D400000BF4FF400410D4800F01EFB0028F8D0F2
:102D5000282000F0A7F84FF40041084800F014FBC9
:102D6000012800D1012400BF4FF40041034800F0C6
:102D70000BFB0128F8D0204610BD000000080140E0
:102D800070B50025002408E0FFF7D8FFC4F1070163
:102D900088402843C5B2601CC4B2082CF4DB284626
:102DA00070BD7CB505460E46002405E0FFF7E8FF40
:102DB0000DF80400601CC4B2052CF7DB9DF8000080
:102DC00030709DF8020028707CBD000010B54FF4F3
:102DD0000040114908801020C870032088700F48F7
:102DE00000F0FEF900224FF400410C4800F0D9FA3F
:102DF00044F2506000F056F80122D103074800F079
:102E0000D0FA1E2000F04EF848200349C87003484D
:102E100000F0E6F910BD0000360000200008014077
:102E200070470000002100B9704720F07F400E4A33
:102E3000128842434FF0E0235A6100229A61012236
:102E40001A6100BF4FF0E022116901F001021AB1CE
:102E500001F48032002AF5D000224FF0E0231A61FD
:102E60009A6100BFE0E70000340000204FF0E0204E
:102E7000006920F004004FF0E021086109200749B3
:102E800008700846007800EB4001C1EBC0104FF617
:102E9000FF7101EAC000024908807047320000203B
:102EA0003400002001B500214FF0804001F081FD89
:102EB0000121880701F06EFD00BF4FF0804001F056
:102EC00075FD00998842F8D300214FF0804001F051
:102ED00061FD08BD10B580210348FDF775FD002098
:102EE0000249088010BD0000500000202C00002086
:102EF00070B50546002400BF00F058F980B90DA157
:102F00000E48FDF76EFC044654B13A212046FDF709
:102F10004CFC044614B1641C204670BD0020FCE744
:102F20000520FFF77FFF2800A5F101018DB2E3D155
:102F300000BFF2E74950442C000000005000002080
:102F400008B50121042001F0D3FB10208DF8030007
:102F50008002ADF8000003208DF802006946334876
:102F600000F03EF900224FF48041304800F019FA99
:102F7000FA20FFF757FF012291032C4800F011FAC5
:102F80004FF4FA70FFF74EFFFFF7A4FF28A12B487C
:102F900001F02AFF03E04FF4FA70FFF743FF28A186
:102FA00024A000F0B5F80028F5D126A1234801F0AF
:102FB0001BFF03E04FF4FA70FFF734FF20A124A0B9
:102FC00000F0A6F80028F5D125A11C4801F00CFF5F
:102FD00003E04FF4FA70FFF725FF19A124A000F0D9
:102FE00097F80028F5D126A1144801F0FDFE03E072
:102FF0004FF4FA70FFF716FF24A126A000F088F81E
:103000000028F5D12BA10D4801F0EEFE03E04FF4AE
:10301000FA70FFF707FF2BA12CA000F079F8002829
:10302000F5D135A1054801F0DFFE08BD00100140D3
:1030300020312E2041540D0A0000000000380140CC
:103040004F4B0000322E2043574D4F44450D0A0090
:1030500041542B43574D4F44453D310D0A0000006C
:10306000332E2041542B4357444843500D0A00004F
:1030700041542B4357444843503D312C310D0A00F5
:10308000342E2043574A41500D0A0000474F542028
:103090004950000041542B43574A41503D224D6155
:1030A00074653430222C2232303030313135612E8B
:1030B000220D0A00352E2043495053544152540DDD
:1030C0000A000000434F4E4E4543540041542B43E9
:1030D000495053544152543D22544350222C2262B1
:1030E000726F6B65722E656D71782E696F222C314F
:1030F0003838330D0A000000362E20455350383240
:10310000363620496E6974204F4B0D0A00000000CE
:103110002DE9F04104460D46C8262046FDF773FB15
:1031200087B23A4621460D4801F082FE0FE000F0DA
:103130003DF848B929460A48FDF753FB20B1FFF78F
:10314000C9FE0020BDE8F0810A20FFF76BFE3000C9
:10315000A6F10101CEB2EAD10120F3E7004400401C
:103160005000002030B589B004460D46FFF7B2FE8E
:103170002A4608A101A8FDF75BF90AA101A8FFF7FB
:10318000C7FF20B92A462146074801F051FE09B081
:1031900030BD000041542B43495053454E443D251A
:1031A000640D0A003E000000004400400A48008808
:1031B00008B90120704708480088084909888842F2
:1031C00003D1002004490880F4E70348008803493C
:1031D00008800120EEE700002C0000202E000020D7
:1031E0002DE9F0410246002500260020002300249E
:1031F000002791F803C00CF00F0591F803C00CF004
:10320000100CBCF1000F03D091F802C04CEA050588
:1032100091F800C0BCF1000F31D0146800202BE001
:103220004FF0010C0CFA00F3B1F800C00CEA0306F1
:103230009E4220D183004FF00F0C0CFA03F7BC43E1
:1032400005FA03FC4CEA040491F803C0BCF1280F12
:1032500006D14FF0010C0CFA00FCC2F814C00AE0D1
:1032600091F803C0BCF1480F05D14FF0010C0CFAE6
:1032700000FCC2F810C0401C0828D1D31460B1F87B
:1032800000C0BCF1FF0F34DD546800202EE000F1D7
:10329000080C4FF0010808FA0CF3B1F800C00CEA72
:1032A00003069E4221D183004FF00F0C0CFA03F766
:1032B000BC4305FA03FC4CEA040491F803C0BCF1DA
:1032C000280F05D100F1080C08FA0CF8C2F8148098
:1032D00091F803C0BCF1480F07D100F1080C4FF082
:1032E000010808FA0CF8C2F81080401C0828CED358
:1032F0005460BDE8F0810000F0B50A4600230024C8
:103300000021002500F00046B6F1004F02D11D4E0D
:10331000F16901E01B4E7168C0F3034583B200F40C
:103320004016B6F5401F08D121F07061154E766841
:1033300026F07066134F7E6012E000F48016B6F53A
:10334000801F06D1032606FA05F4A14341F07061FF
:1033500006E0460D360103FA06F6B14341F070610E
:1033600022B1460D360103FA06F6314300F000465D
:10337000B6F1004F02D1034EF16101E0014E7160E0
:10338000F0BD0000000001400246002093680B40A1
:103390000BB1012000E000207047416170470161DE
:1033A00070470AB1016100E04161704700BFFEE76C
:1033B00008B50121042001F09BF90220ADF80000BE
:1033C00003208DF8020014208DF80300694604489C
:1033D000FFF706FF02210248FFF7E1FF08BD0000EA
:1033E0000008014008B50121082001F081F9012001
:1033F000ADF8000003208DF8020010208DF80300C6
:1034000069460448FFF7ECFE01210248FFF7C7FFB9
:1034100008BD0000000C014010B50446207B0128C7
:1034200002D12068FCF759FF002020606060A06096
:10343000207310BD0246002301230DE002F07F003F
:103440000870D2092AB1087840F080000870491C41
:1034500001E0184670475B1C042BEFDD4FF0FF3096
:10346000F8E770B504460E460025206898B901209B
:1034700020733046FCF702FF20602068E0B1002096
:103480006060A66003E00020216848556D1CA068BC
:10349000A842F8D810E00220207303E00020216841
:1034A00048556D1CA068A842F8D800206060A0684C
:1034B000B04201D20020206070BD00002DE9FF4F16
:1034C00083B082468B469146159C002500200290D1
:1034D0000F2701904846FDF796F90FFA80F8B9F1E9
:1034E000000F03D1012007B0BDE8F08F08F1020002
:1034F000384487B2109808B145F00205129878B1A7
:1035000045F004051298FDF77EF9C0B202901398B9
:10351000FDF779F901460298001D0844384487B246
:10352000119820B1012804D0022808D104E000BF7E
:1035300007E045F00C0504E045F0140501E0022029
:10354000D1E700BF149808B145F02405BAF1000F87
:1035500002D0BBF1000F01D10320C4E745F0C00544
:103560005046FDF750F906465846FDF74CF93044F1
:10357000001D384487B239462046FFF772FF2068A5
:1035800008B90420AFE739462068FDF71DFA10217D
:103590006268501C606020688154D4E90023D1180F
:1035A000781FFFF747FF00B201900198002804DA66
:1035B0002046FFF731FF052095E761680198084430
:1035C000606000216268501C6060206881540421A2
:1035D0006268501C6060206881544D216268501CF4
:1035E00060602068815451216268501C60602068CE
:1035F000815454216268501C606020688154626864
:10360000501C60602068815404216268501C606016
:10361000206881546168481C6060206845540698A1
:10362000010A6268501C6060206881540698C1B22B
:103630006268501C606020688154C8F3072162688A
:10364000501C6060206881546268501C6060206873
:1036500000F80280D4E90012881842464946FDF776
:10366000AEF860684044606005F00400B8B300261E
:10367000139808B938A013901298FDF7C4F886B2D1
:10368000310A6268501C6060206881546268501C76
:10369000606020688654D4E9001288183246129976
:1036A000FDF78DF86068304460601398FDF7ABF863
:1036B00086B2310A6268501C60602068815462687A
:1036C000501C606020688654D4E900128818324685
:1036D0001399FDF774F860683044606000BF05F02E
:1036E0008000C8B15046FDF78EF886B2310A626894
:1036F000501C6060206881546268501C60602068C3
:103700008654D4E90012881832465146FDF757F81E
:1037100060683044606000BF05F04000C8B15846A2
:10372000FDF771F886B2310A6268501C606020684B
:1037300081546268501C606020688654D4E900128D
:10374000881832465946FDF73AF8606830446060A0
:1037500000BF0020C7E60000000000002DE9FF4F79
:1037600083B0834617469946139C00250026002007
:10377000029001908046BBF1000F03D1012007B0F9
:10378000BDE8F08F00260AE00498805D232803D06E
:103790000498805D2B2801D10220F0E7761C049864
:1037A000805D0028F0D148F03008119808B148F049
:1037B000010806EB0900851C109820B1012804D0EF
:1037C00002280AD105E000BF09E048F00208AD1C5C
:1037D00005E048F00408AD1C01E00320CFE700BF7E
:1037E0008FB33878022821D14FF0000A00BF50462D
:1037F0000AF1010A385C7D28F9D1AAF1030A0AF11D
:10380000070002900298A9EB000AE81CA0EB0A014D
:103810002046FFF726FE206808B90420AFE7EA1C1F
:10382000A2EB0A012068FDF7CFF819E0691D2046D8
:10383000FFF717FE206808B90420A0E7691D20687B
:10384000FDF7C2F80CE0FFE7691D2046FFF709FE0F
:10385000206808B9042092E7691D2068FDF7B4F8D4
:103860006168481C6060206800F80180D4E90002AB
:1038700081182846FFF7DEFD01900198002804DA40
:103880002046FFF7C9FD052079E7616801980844E3
:103890006060C6F307216268501C60602068815434
:1038A0006268501C606020688654D4E90012881851
:1038B00032460499FCF783FF6068304460601098DA
:1038C00060B14FEA1B216268501C6060206881541F
:1038D0006268501C6060206800F802B0C7B1387898
:1038E00002280BD1D4E9001288183946029AFCF755
:1038F000F4FF616802980844606009E0D4E90012AE
:1039000088184A463946FCF7E8FF6068484460601A
:10391000002034E770B505460C4604212046FFF729
:10392000A0FD206808B9012070BD40216268501CCC
:1039300060602068815402216268501C60602068C9
:10394000815429126268501C60602068815462684A
:10395000501C6060206885540020E5E770B505467E
:103960000C4604212046FFF77CFD206808B90120A1
:1039700070BD70216268501C606020688154022113
:103980006268501C60602068815429126268501C73
:103990006060206881546268501C606020688554B3
:1039A0000020E5E770B505460C4604212046FFF7E8
:1039B00058FD206808B9012070BD50216268501C74
:1039C00060602068815402216268501C6060206839
:1039D000815429126268501C6060206881546268BA
:1039E000501C6060206885540020E5E770B50546EE
:1039F0000C4604212046FFF734FD206808B9012059
:103A000070BD62216268501C606020688154022190
:103A10006268501C60602068815429126268501CE2
:103A20006060206881546268501C60602068855422
:103A30000020E5E72DE9FF5F8046174699460E9C7A
:103A40000026B246B3460025B8F1000F03D101208D
:103A500004B0BDE8F09F0BE057F8250008B902203C
:103A6000F6E757F82500FCF7CEFE0644681CC5B201
:103A70004D45F1DB09EB4900801C00EB060A0AF119
:103A800005012046FFF7EDFC206808B90320DFE7B9
:103A900082216268501C606020688154D4E9000271
:103AA00081185046FFF7C6FC0FFA80FBBBF1000FF0
:103AB00004DA2046FFF7B0FC0420C9E760685844E8
:103AC00060604FEA18216268501C60602068815471
:103AD0006268501C6060206800F80280002524E0C5
:103AE00057F82500FCF78FFE0646C6F307216268EB
:103AF000501C6060206881546268501C60602068BF
:103B00008654D4E90023D01857F825103246FCF724
:103B100056FE6068304460600198C1B26268501C13
:103B2000606020688154681CC5B24D45D8DB002018
:103B30008EE7F0B504460D462646012300201060AE
:103B4000002114E0775C07F07F07106807FB030093
:103B50001060705C00F0800008B9481CF0BDDB010B
:103B6000B3F5001F02D36FF00100F7E7491CA9422B
:103B7000E8DB4FF0FF30F1E72DE9F84380460C46D3
:103B800015461E462F2108F10600FCF70EFE0746DB
:103B90000020009017B90120BDE8F8837F1C6A4619
:103BA000042108F10100FFF7C4FF2520FCF766FBA4
:103BB0002060206808B90220EEE725212068FCF784
:103BC00003FF242239462068FCF787FE243700983B
:103BD0002C3830803188481CFCF750FB286028685E
:103BE00020B92068FCF779FB0320D5E73288511C07
:103BF0002868FCF7E9FE328839462868FCF76DFE34
:103C00000020C9E701464878022801D0012070470A
:103C1000887810B18878012801D1C878F7E7FF20AB
:103C2000F5E700002DE9FC5F81460D4614461E466F
:103C3000DDE90C8B99F8000000F00F0A00200190DC
:103C40000AF008000090CAF341008BF8000001AAB6
:103C5000042109F10100FFF76CFF4844471C01985B
:103C6000022802D30AF0010010B1FF20BDE8FC9F3A
:103C70007878397840EA012020802088801C0199DA
:103C8000884201D9FF20F1E754A1B81CFCF7A9FD37
:103C900008B10F20EAE79BF8000020B101283DD0D1
:103CA000022877D13BE0009808B1FF20DEE72188A9
:103CB000481CFCF7E3FA2860286808B9FF20D5E71C
:103CC0002288511C2868FCF77FFE2288B91C2868CE
:103CD000FCF703FE0198801E2188401AA8F8000016
:103CE000B8F80010481CFCF7C9FA3060306820B9F9
:103CF0002868FCF7F2FAFF20B8E7B8F80020511C5A
:103D00003068FCF761FEB8F80020B4F800C0BB1CB6
:103D10000CEB03013068FCF7E0FD4FE000BF2088AA
:103D2000801C0199884201D9FF209FE72088C01C90
:103D3000395C2088801C385C41EA00210E980180A3
:103D40000E9808B9FF2091E72188481CFCF796FAE5
:103D50002860286808B9FF2088E72288511C286855
:103D6000FCF732FE2288B91C2868FCF7B6FD0198E2
:103D7000001F2188401AA8F80000B8F80010481C5D
:103D8000FCF77CFA3060306828B92868FCF7A5FA9F
:103D9000FF206BE710E0B8F80020511C3068FCF7FA
:103DA00013FEB8F80020B4F800C03B1D0CEB030173
:103DB0003068FCF792FD01E0FF2057E700BF2B21A0
:103DC0002846FCF7F2FC20B923212846FCF7EDFC3D
:103DD00008B1FF204AE7002048E70000246372652D
:103DE0007100000001464878022801D00120704788
:103DF000887820B9C8780A2801D10020F7E7012087
:103E0000F5E701464878022801D0012070478878FC
:103E100020B9C8780A2801D10020F7E70120F5E78A
:103E200001464878022801D001207047887820B9DF
:103E3000C8780A2801D10020F7E70120F5E70246FB
:103E40005078022801D0012070479078B0EB112FF4
:103E500005D1D078CBB2984201D10020F4E70120FF
:103E6000F2E70000F8B50446FF2720780511012D80
:103E700001DB0E2D01DD3846F8BD032D24D10020D5
:103E800000906A460421601CFFF753FE2044461C44
:103E90000098022803D3207800F0010008B1FF2029
:103EA000EAE77078317840EA0120801C0099884266
:103EB00001D9FF20E0E706A1B01CFCF792FC08B195
:103EC0000F2700E0032700E02F463846D4E7000024
:103ED00024637265710000000146FF208A78A2B950
:103EE000CA78142A11D10A7932B1012A05D0022ADE
:103EF00004D0802A06D103E000BF00BF002003E009
:103F0000012001E0022000BF00BF704701460120F0
:103F10008A781AB9CA781E2A00D10020704700BFDB
:103F2000FEE7704770B5002100230F22C47804B368
:103F3000154C246804F4E064C4F5E064210AC1F17E
:103F40000403CA40447804FA03F1847814402143FE
:103F500009010E4C0678A155047804F01F050124D0
:103F6000AC4005786D11AD0005F1E025C5F80041C4
:103F700009E0047804F01F050124AC40044D0678E4
:103F8000761145F8264070BD0CED00E000E400E03D
:103F900080E100E030B58BB00020079008900990D8
:103FA0000A90012530A032A333A235A100904048E9
:103FB00000F01AFF07A8002102910391CDE9041037
:103FC00000912B0228A2019129A12BA0FFF776FADC
:103FD000002842D1089A91B20798FFF7C3F8FA2057
:103FE000FEF786FF0446002C33D02046FFF73AFF49
:103FF00002282ED12046FFF705FE062823D2DFE84F
:1040000000F003090E13181D2AA1294800F0ECFE48
:1040100000251DE02CA1264800F0E6FE18E031A1A5
:10402000234800F0E1FE13E037A1214800F0DCFE58
:104030000EE03DA11E4800F0D7FE09E043A11C4858
:1040400000F0D2FE04E04CA1194800F0CDFE00BF04
:1040500000BF07A8FFF7E0F903E04EA1144800F005
:10406000C3FE28460BB030BD353631363833390003
:104070007465737400000000373732343700000075
:104080004F6E654E65745F4465764C696E6B0D0AC4
:1040900050524F49443A2025732C09415549463A1C
:1040A0002025732C0944455649443A25730D0A00CE
:1040B00000380140546970733A09C1ACBDD3B3C92B
:1040C000B9A60D0A000000005741524E3A09C1AC92
:1040D000BDD3CAA7B0DCA3BAD0ADD2E9B4EDCEF35C
:1040E0000D0A00005741524E3A09C1ACBDD3CAA7D0
:1040F000B0DCA3BAB7C7B7A8B5C4636C69656E7402
:1041000069640D0A000000005741524E3A09C1ACE3
:10411000BDD3CAA7B0DCA3BAB7FECEF1C6F7CAA713
:10412000B0DC0D0A000000005741524E3A09C1AC04
:10413000BDD3CAA7B0DCA3BAD3C3BBA7C3FBBBF232
:10414000C3DCC2EBB4EDCEF30D0A00005741524E72
:104150003A09C1ACBDD3CAA7B0DCA3BAB7C7B7A8E8
:10416000C1B4BDD328B1C8C8E7746F6B656EB7C75B
:10417000B7A8290D0A0000004552523A09C1ACBD4A
:10418000D3CAA7B0DCA3BACEB4D6AAB4EDCEF30D91
:104190000A0000005741524E3A094D5154545F50A5
:1041A00061636B6574436F6E6E656374204661690D
:1041B0006C65640D0A00000070B588B005460C46B9
:1041C0000020049005900690079023462A4610A1EF
:1041D000174800F009FE2046FCF715FB064604A828
:1041E000012100220223CDE90032CDE9021033463D
:1041F000224629460A20FFF7B1FA38B9059A91B24A
:104200000498FEF7AFFF04A8FFF706F908B070BDE9
:104210005075626C69736820546F7069633A202529
:10422000732C204D73673A2025730D0A000000009F
:10423000003801402DE9F04790B0814600200C90F5
:104240000D900E900F900B900A9009900890002608
:1042500007900025002482464846FFF703FE0646E5
:10426000F01E0D2870D2DFE800F01C868FA9C5EA89
:10427000CEEADCEAEAEA070008AB0BAA0AA948463C
:10428000FFF77AFC05465DB9BDF82000009085A1D6
:104290008D48DDE90A2300F0A7FD0CA8FFF7BCF864
:1042A000D0E08A4807A908AA0BABCDE9002102900B
:1042B00009AA0AA94846FFF7B5FC0546002D59D1C1
:1042C000BDF820000B99CDE90010BDF8243080A185
:1042D0007D480A9A00F088FD0B9800F0A9FE074679
:1042E00027B98AA1784800F07FFD10E08AA13846FE
:1042F00000F088FE8046D8F8140020B101218748DC
:10430000FFF74BF803E001218448FFF748F83846EF
:1043100000F04CFE9DF81C00012802D0022827D195
:1043200013E00CA969480088FFF7F4FA58B97CA19A
:10433000654800F059FD0D9A91B20C98FEF712FFF6
:104340000CA8FFF769F814E079E00CA95F48008831
:10435000FFF728FB58B978A15B4800F045FD0D9A9E
:1043600091B20C98FEF7FEFE0CA8FFF755F800E09E
:1043700000BF00BF66E04846FFF734FD18B974A1DE
:10438000514800F031FD5DE04846FFF749FDA0B916
:1043900077A14D4800F028FD0CA90A20FFF726FB65
:1043A00058B979A1484800F01FFD0D9A91B20C98B8
:1043B000FEF7D8FE0CA8FFF72FF843E0434801882A
:1043C0004846FFF73CFDA0B975A13F4800F00CFD41
:1043D0000CA90A20FFF7C2FA58B977A13A4800F0B1
:1043E00003FD0D9A91B20C98FEF7BCFE0CA8FFF7E6
:1043F00013F827E04846FFF704FD18B975A13248C5
:1044000000F0F2FC1EE04846FFF766FD20B977A1F8
:104410002D4800F0E9FC03E07BA12B4800F0E4FC10
:1044200010E04846FFF772FD20B97EA1264800F053
:10443000DBFC03E082A1244800F0D6FC02E04FF050
:10444000FF3500BF00BFFEF745FD681C10B910B076
:10445000BDE8F0877D210B98FCF7A7F90446A4B1CD
:10446000681C90B1641C06E014F8012B50460AF158
:10447000010A04A90A542078302802DB2078392860
:10448000F2DD04A8FCF784F982460F2E01D0032E3A
:1044900005D10A98FBF721FF0B98FBF71EFF00BF21
:1044A000D5E70000636D6469643A2025732C20729F
:1044B00065713A2025732C207265715F6C656E3AC8
:1044C0002025640D0A000000003801403000002063
:1044D000746F7069633A2025732C20746F70696360
:1044E0005F6C656E3A2025642C207061796C6F6179
:1044F000643A2025732C207061796C6F61645F6C65
:10450000656E3A2025640D0A000000004552524FA6
:1045100052206A736F6E00004C454400000C01404D
:10452000546970733A0953656E64205075626C6902
:10453000736841636B0D0A00546970733A095365DF
:104540006E64205075626C6973685265630D0A0071
:10455000546970733A094D515454205075626C6916
:1045600073682053656E64204F4B0D0A00000000F5
:10457000546970733A09526576205075626C69739C
:10458000685265630D0A0000546970733A095365F7
:104590006E64205075626C69736852656C0D0A0018
:1045A000546970733A09526576205075626C69736C
:1045B0006852656C0D0A0000546970733A095365BE
:1045C0006E64205075626C697368436F6D700D0A7C
:1045D00000000000546970733A09526576205075E6
:1045E000626C697368436F6D700D0A005469707373
:1045F0003A094D5154542053756273637269626570
:10460000204F4B0D0A000000546970733A094D5158
:1046100054542053756273637269626520457272E7
:104620000D0A0000546970733A094D5154542055D5
:104630006E537562736372696265204F4B0D0A0099
:10464000546970733A094D51545420556E53756234
:10465000736372696265204572720D0A0000000082
:1046600070B586B004460D460026002002900390E7
:104670000490059007E054F826200DA1124800F0A0
:10468000B3FB701CC6B2AE42F5DB02A82B46224635
:10469000022100901420FFF7CDF938B9039A91B2A6
:1046A0000298FEF75FFD02A8FEF7B6FE06B070BDE9
:1046B00053756273637269626520546F7069633AFF
:1046C0002025730D0A0000000038014070470000EB
:1046D00029B1064AD2690243044BDA6104E0034A75
:1046E000D2698243014BDA6170470000001002403A
:1046F00029B1064A92690243044B9A6104E0034AD5
:1047000092698243014B9A61704700000010024099
:1047100030B500210022002400232D4D6D6805F0E6
:104720000C0121B1042905D0082923D105E0294D28
:10473000056022E0274D05601FE0254D6D6805F4FA
:104740007012234D6D6805F48034022505EB92420A
:104750001CB9214D554305600BE01D4D6D6805F4F6
:1047600000351DB11C4D5543056002E0194D554300
:10477000056002E0174D056000BF00BF144D6D6875
:1047800005F0F0010909154D6B5C0568DD404560D9
:104790000F4D6D6805F4E061090A104D6B5C4568CA
:1047A000DD4085600A4D6D6805F46051C90A0B4D06
:1047B0006B5C4568DD40C560054D6D6805F44041A2
:1047C000890B074D6B5CC568B5FBF3F5056130BD22
:1047D0000010024000127A0000093D00180000207D
:1047E00028000020704710B500F002F810BD00004E
:1047F0000CB50020019000903348006840F48030F0
:104800003149086000BF3048006800F40030009073
:104810000198401C0190009818B90198B0F5A06F5C
:10482000F1D12948006800F4003010B10120009057
:1048300001E0002000900098012843D1234800683F
:1048400040F01000214908600846006820F003008D
:1048500008600846006840F0020008601A48406896
:10486000194948600846406848600846406840F476
:10487000806048600846406820F47C104860084624
:10488000406840F4E81048600846006840F08070D6
:10489000086000BF0C48006800F000700028F9D0E4
:1048A0000948406820F0030007494860084640680E
:1048B00040F00200486000BF0348406800F00C0070
:1048C0000828F9D10CBD0000001002400020024071
:1048D00004480068002804DD02480068401E0149C1
:1048E000086070471400002010B51348006840F0BD
:1048F00001001149086008464068104908400E4907
:104900004860084600680E4908400B4908600846A0
:10491000006820F4802008600846406820F4FE000B
:1049200048604FF41F008860FFF75DFF4FF00060A4
:104930000449086010BD0000001002400000FFF8AC
:10494000FFFFF6FE08ED00E010B501210846FFF775
:10495000BFFE4FF6FF700949888009480068094981
:10496000B0FBF1F0401E054908800020C880488057
:104970004FF0804000F020F810BD0000D000002073
:104980000000002040420F000148008870470000EE
:104990001004004021B1028842F00102028004E0CC
:1049A00002884FF6FE731A40028070470146888CD9
:1049B0007047818470470000002202881D4B984296
:1049C0000ED01D4B98420BD0B0F1804F08D01B4B3E
:1049D000984205D01A4B984202D01A4B984204D103
:1049E0004FF68F731A404B881A43174B984207D0E3
:1049F000164B984204D04FF6FF431A40CB881A4317
:104A000002808B8883850B8803850A4B98420BD0E4
:104A1000094B984208D00E4B984205D00D4B984256
:104A200002D00D4B984201D10B7A03860123838279
:104A300070470000002C0140003401400004004099
:104A400000080040000C004000100040001400402E
:104A500000400140004401400048014010B540F2D0
:104A60002551044800F050F818B12021014800F009
:104A700029F810BD0038014010B540F225510E480C
:104A800000F042F8B0B10D480088802802D3002021
:104A90000A4908800848001D0088C1B207480288FA
:104AA0000088401C054B188005488154202102488D
:104AB00000F008F810BD0000004400402C00002069
:104AC0005000002001F40072B2F5007F00D100BF59
:104AD000CA430280704721B1828942F40052828128
:104AE00004E082894DF6FF731A40828170470246C6
:104AF0000020B1F5007F00D100BF13880B400BB13F
:104B0000012000E00020704770B502460024002319
:104B10000025002040F66A16B14200D100BFC1F363
:104B2000421501F01F03012606FA03F3012D02D1FD
:104B30009689334006E0022D02D1168A334001E007
:104B4000968A33400C12012606FA04F41688344083
:104B500013B10CB1012000E0002070BDF0B5034698
:104B6000002400260025002040F66A17B94200D133
:104B700000BF1846C1F3421401F01F06012707FACF
:104B800006F5012C01D10C3004E0022C01D11030CB
:104B900000E014301AB107682F43076002E007688D
:104BA000AF430760F0BD00002DE9F04786B0054631
:104BB0000E460024A24600BFA1460027B08900B1DE
:104BC00000BF2F462C8A4CF6FF700440F088044347
:104BD0002C82AC894EF6F3100440B088318908432A
:104BE000718908430443AC81AC8A4FF6FF4004400E
:104BF000B0890443AC8201A8FFF78AFD1F488742B1
:104C000002D1DDF810A001E0DDF80CA0A88900F4C5
:104C1000004040B10AEBCA0000EB0A1031684900BD
:104C2000B0FBF1F807E00AEBCA0000EB0A103168AC
:104C30008900B0FBF1F86420B8FBF0F00401200912
:104C4000642101FB1089A88900F4004040B13220A2
:104C500000EBC900B0FBF1F000F00700044308E0EE
:104C6000322000EB09106421B0FBF1F000F00F00DE
:104C700004432C8106B0BDE8F087000000380140F5
:104C8000C1F308028280704700BFFEE710B586B00E
:104C9000044601210420FFF72BFD01218803FFF7C3
:104CA00027FD18208DF817004FF40070ADF81400A0
:104CB00003208DF8160005A91E48FEF791FA04207E
:104CC0008DF817000002ADF8140003208DF81600CF
:104CD00005A91848FEF784FA01940020ADF81000E9
:104CE0000C20ADF80E000020ADF80C00ADF80A0065
:104CF000ADF8080001A91048FFF756FF01210E4842
:104D0000FFF7E9FE012240F225510B48FFF726FF8D
:104D100025208DF8000001208DF8030000208DF87B
:104D2000010002208DF802006846FFF7FBF806B08C
:104D300010BD0000000801400038014010B586B0E9
:104D4000044601210420FFF7D3FC01214804FFF7AA
:104D5000BFFC18208DF817000420ADF814000320C4
:104D60008DF8160005A91E48FEF73AFA04208DF8C2
:104D700017000820ADF8140003208DF8160005A9CF
:104D80001748FEF72DFA01940020ADF810000C2012
:104D9000ADF80E000020ADF80C00ADF80A00ADF83B
:104DA000080001A90F48FFF7FFFE01210D48FFF79A
:104DB00092FE012240F225510A48FFF7CFFE26203D
:104DC0008DF8000001208DF8030000208DF801000F
:104DD0008DF802006846FFF7A5F806B010BD000088
:104DE00000080140004400400FB430B5CBB0054688
:104DF00001AC50A800904FF4947101A8009B4F9A09
:104E0000FBF7FCFA002000900BE014F8011B284689
:104E1000FFF736FF00BF40212846FFF768FE002855
:104E2000F9D020780028F0D14BB030BC5DF814FBED
:104E30002DE9F04107460C46154600260DE014F812
:104E4000011B3846FFF71CFF00BF40213846FFF723
:104E50004EFE0028F9D0701C86B2AE42EFDBBDE8F2
:104E6000F081490050EAC12018BF04204A0D18BF44
:104E700040F0010040F2FF72B2EB515F08BF40F01A
:104E80000200012808BF0520704740F201320020CF
:104E90004FF0E04101F077B8024A0020110701F01D
:104EA00072B8000001FDFFFF10B50446D1E9000112
:104EB00000F002F8206010BDF8B504460D466A46C1
:104EC00000F060F900987E30009000281FDC00227E
:104ED00013462046294600F0EFFE18D0002140F688
:104EE00008004FF0000006462046294600F09EFECE
:104EF000044640F6080006EA00014FF0000034F0D6
:104F0000004004BF0220FDF735F82046F8BD0098A8
:104F1000FF280DDB0220FDF72DF800221346204666
:104F2000294600F0BFFF8CBF04484FF0FF40F8BD9A
:104F300020462946BDE8F84000F078BE000080FF1A
:104F400010B504460A46D4E90003194600F071F989
:104F5000C4E9000110BD30380A2801D20120704791
:104F600000207047014609B1086808B90020704761
:104F700019B1D1E90120904201D30846F7E702E0D8
:104F80008868401C886041B1D1E90120904204D278
:104F90008A680868805C2028F2DDD1E9012090420F
:104FA00002D18868401E88600846E0E770B5044674
:104FB000002522E02568A08900F4807020B9A0684F
:104FC00010B1A068FFF7F2FFA08900F4807028B943
:104FD000206918B10A4A206951688847A08900F4FD
:104FE000007028B9206A18B1054A206A51688847BC
:104FF00003484168204688472C46002CDAD170BD12
:105000004400002070B504460D4600222946204683
:1050100000F0E6F870BD70B5044628202168884786
:1050200005461DB128212846FBF7F0FC284670BD37
:1050300010B5044600221146204600F06BF810BD62
:105040002DE9F0478AB004460E46154698461C21C5
:1050500003A8FBF7DBFC002700202C490860486010
:1050600004B106B932E00394049600200590284A62
:1050700007CA07AB07C32648FFF7CDFF074607B9A6
:1050800024E003A800F0E4FC8246FFF76BFF8146B2
:105090004946384600F03EFC00B917E0B8F1000F71
:1050A0000BD003A8FFF75EFFDDE90410884203D2AE
:1050B00005990398405C00B108E01DB1059903987B
:1050C0000844286038460AB0BDE8F08717B1384672
:1050D000FFF76CFFC4B1019400200290DDE90410D9
:1050E000884202D20598029004E0049810B1049816
:1050F000401E02901DB1DDE901010844286003480B
:10510000DDE9011206C000BF0020DCE73C00002002
:10511000440000202DE9F04104460D46164614B91E
:105120000020BDE8F0812046FBF76DFB471C3346AD
:105130002A4639462046FFF783FFF2E770B504465A
:105140000D4604B10DB9012070BDAC4201D1002063
:10515000FAE705E0207808B90020F5E7641C6D1C2B
:105160002078FBF73DF906462878FBF739F98642A7
:10517000F0D02078FBF734F906462878FBF730F9B1
:10518000301AE1E710B5144600222260114A21F0DE
:1051900000439342A8BF10BD53EA000208BF10BDF0
:1051A000B3F5801FA8BF226807DA362200F0EBFEB5
:1051B0006FF0350221F000432260DFF81CC06FF36E
:1051C0001E510CEB23531A4441F0FF5141F00051A2
:1051D000226010BD0000F07F02FCFFFF2E20704710
:1051E0002DE9F04105460E461746002405B116B9D3
:1051F0000020BDE8F081AC685FB100E024688CB1AC
:10520000206A78B13046216AFBF728FC0028F5D1E6
:1052100008E000E024682CB13046216AFFF78EFFD9
:105220000028F7D10CB1206A08B90020E1E7204638
:10523000DFE72DE9F04106460C4640F2FF751746C0
:1052400035EA14502BD000221346304600F034FDCE
:1052500025D03A463046214600F095FE06460C46DB
:1052600035EA145010D000221346304600F024FDD9
:1052700015D10220FCF77EFEFFF70EFE0A462146FE
:1052800062F31E01BDE8F0810220FCF773FEFFF718
:10529000FCFD0A46214662F31E01BDE8F08130465E
:1052A0002146BDE8F0810000A4B0002500240121C2
:1052B0000420FFF71DFA01210846FFF719FA012122
:1052C0002D48FEF719F8FEF78DF8FEF771F8FFF795
:1052D0003BFB4FF4E130FFF731FD4FF4E130FFF7D6
:1052E000D5FCFDF7C3FDFDF72BFE03E04FF47A700C
:1052F000FDF7D8FDFEF74EFE0028F7D11F480068E5
:105300000190012101A8FFF7ABF934E0FDF75EFD44
:10531000FDF7E8FC78B122A923A8FDF742FD9DF82E
:1053200088309DF88C2016A102A8FBF781F802A90D
:105330001948FFF759FD681C80B20546B0F5FA7FA1
:105340000ADB16A11448FFF74FFD02A918A0FEF7CB
:1053500033FF0025FDF7BEFD0020FDF7C9FD044623
:1053600014B12046FEF766FF0A20FDF75BFD40F60C
:10537000B830FDF797FDC9E7000230002060000853
:105380007B2254656D70223A25642C2248756D6924
:10539000223A25647D000000003801404F6E654EC2
:1053A00065745F5075626C6973680D0A00000000D7
:1053B000686F6D652F707562000000002DE9F04187
:1053C00080460C4600250027E068B0F57A7F02D3BE
:1053D0000020BDE8F081E068401CE060A168206822
:1053E000405C5B2800D05FE0A068401CA0602046C5
:1053F000FFF7B8FD4CB1D4E90110884205D2A1688D
:105400002068405C5D2800D13FE01CB1D4E9011068
:10541000884203D3A068401EA06045E0A068401EFB
:10542000A06000BF04F11000FFF7F5FD064606B9C5
:105430003AE015B93546374602E03E6077603746B8
:10544000A068401CA0602046FFF78CFD214638462E
:1054500000F060FA00B927E02046FFF783FD44B171
:10546000D4E90110884204D2A1682068405C2C284D
:10547000D8D044B1D4E90110884204D2A168206890
:10548000405C5D2800D00FE000BFE068401EE06097
:1054900005B16F602020C8F80C00C8F80850A0685B
:1054A000401CA060012094E715B12846FFF77EFD5F
:1054B00000208EE702460023002100BF23E0505C5D
:1054C000302806DB505C392803DC505C303803445C
:1054D00015E0505C412806DB505C462803DC505C3C
:1054E000373803440BE0505C612806DB505C6628CB
:1054F00003DC505C5738034401E000207047032967
:1055000000D21B01491C0429D9D31846F6E7000034
:105510002DE9F04391B080460C4600BF002010906A
:10552000FFF75CFE814600250CB1206818B9002009
:1055300011B0BDE8F08300253CE0A1682068084474
:10554000405D342820D00ADCA0F12B0009282ED29F
:10555000DFE800F0202D212A2D1617181900382811
:1055600016D006DC352810D036280FD037281ED1AB
:105570000DE039280DD045280FD0652817D10BE054
:1055800000BF00BF00BF00BF00BF00BF00BF00BF23
:1055900000BF00BF00BF00BF00BFA1682068084473
:1055A000405D0DF8050003E00DF8059000E00AE00D
:1055B00000BF6D1C3F2D05D224B1A068284461684E
:1055C0008842BAD300BF00200DF8050010A9684634
:1055D00000F05CFA06460F4668461099884201D1F1
:1055E0000020A5E7C8E90667144A154B304639463E
:1055F00000F058FC04D86FF00040C8F8140011E027
:105600000022104B3046394600F0C2FB04D84FF060
:105610000040C8F8140005E03046394600F088FB29
:10562000C8F814000820C8F80C00A0686A46109951
:10563000891A0844A06001207AE700000000C0FF3A
:10564000FFFFDF410000E0C12DE9F04180460C463C
:1056500000260025E068B0F57A7F02D30020BDE87F
:10566000F081E068401CE06044B1D4E90110884258
:1056700004D2A1682068405C7B2800D07DE0A0684F
:10568000401CA0602046FFF76DFC4CB1D4E901102E
:10569000884205D2A1682068405C7D2800D15DE089
:1056A0001CB1D4E90110884203D3A068401EA06059
:1056B00063E0A068401EA06000BF04F11000FFF787
:1056C000AAFC074607B958E016B93E463D4602E037
:1056D0002F607D603D46A068401CA0602046FFF71B
:1056E00041FC2146284600F04EF800B945E020462E
:1056F000FFF738FC286928620020286144B1D4E90A
:105700000110884204D2A1682068405C3A2800D089
:1057100033E0A068401CA0602046FFF723FC214630
:10572000284600F0F7F800B927E02046FFF71AFCFA
:1057300044B1D4E90110884204D2A1682068405CD9
:105740002C28BAD044B1D4E90110884204D2A1680F
:105750002068405C7D2800D00FE000BFE068401E5C
:10576000E06006B175604020C8F80C00C8F8086019
:10577000A068401CA060012071E716B13046FFF719
:1057800015FC00206BE72DE9F84F80460C46A16818
:1057900020680844461CA16820680844451C002075
:1057A00000900027A1682068405C222800D0A6E075
:1057B0004FF0000AD1460DE028785C2809D1681C1A
:1057C0002168401A6168884200D398E009F1010914
:1057D0006D1C6D1C2068281A6168884202D22878E6
:1057E0002228E9D12068281A6168884202D22878E4
:1057F000222800D083E0A16820680844281AA0EB82
:10580000090A0AF1010021698847074607B976E0CD
:10581000009761E030785C2807D016F8010B0099FA
:1058200008700098401C009056E04FF00209A81B39
:10583000012800DA63E07078662819D008DC222895
:1058400032D02F2832D05C282FD0622840D108E0F7
:105850006E2814D0722819D074281ED0752837D11C
:105860002BE00820009908700098401C009030E060
:105870000C20009908700098401C009029E00A2034
:10588000009908700098401C009022E00D200099BB
:1058900008700098401C00901BE0092000990870D7
:1058A0000098401C009014E000BF00BF7078009981
:1058B00008700098401C00900BE06A46294630466C
:1058C00000F0F2F88146B9F1000F00D117E000E0D6
:1058D00015E000BF4E4400BFAE429BD300200099AC
:1058E00008701020C8F80C00C8F810702068281A3A
:1058F000A060A068401CA0600120BDE8F88F17B12F
:1059000038466169884716B12068301AA0600020C7
:10591000F3E7000070B505460C460CB1206808B9E5
:10592000002070BD9CB1A068001D616888420ED83F
:10593000A2682168881804223FA1FAF783FF30B9D2
:105940000420E860A068001DA0600120E9E79CB188
:10595000A068401D616888420ED8A2682168881836
:10596000052237A1FAF76EFF30B90120E860A06880
:10597000401DA0600120D4E7ACB1A068001D6168A3
:10598000884210D8A2682168881804222EA1FAF74C
:1059900059FF40B90220E86001206861A068001D3D
:1059A000A0600120BDE76CB1D4E90110884209D2A2
:1059B000A1682068405C222804D121462846FFF7D0
:1059C000E2FEAEE7BCB1D4E90110884213D2A1686F
:1059D0002068405C2D2809D0A1682068405C3028F0
:1059E00009DBA1682068405C392804DC2146284690
:1059F000FFF78EFD95E76CB1D4E90110884209D21A
:105A0000A1682068405C5B2804D121462846FFF746
:105A1000D5FC86E76CB1D4E90110884209D2A168AF
:105A20002068405C7B2804D121462846FFF70CFE05
:105A300077E7002075E700006E756C6C00000000D1
:105A400066616C736500000074727565000000008B
:105A500010B504461CB1206808B1A06808B1002048
:105A600010BD7CB1A068001D616888420AD2A2689E
:105A700021688818032204A1FAF7E4FE10B9A0688F
:105A8000C01CA0602046EBE7EFBBBF0000B583B0B1
:105A90000A460021CDE9001101466846FBF7ACFE3D
:105AA000DDE9000103B000BD2DE9FF5F80468946B6
:105AB000154600240026C24600200390834602902B
:105AC0000190A9EB0A00062800DA81E00AF1020041
:105AD000FFF7F0FC0646B6F55C4F03D3B6F5604F12
